:060000000A128A110C280F
:10000800FE00030EF4000A08F5000A128A151A28E1
:100018000A128A110F288313B030FD001230FE0037
:100028000030FF00A03084000A168A1114220A1238
:100038008A116F30FD001130FE00F330FF0062308E
:1000480084000A168A1114220A128A110A128A11C5
:10005800FE270A128A11FB00B0308400B8300A1655
:100068008A11C2210A128A115330840062300A169A
:100078008A11C2210A128A11F601F701F801F90161
:10008800FA0183010A128A1149288316031386127A
:100098008312031386120A128A11BE270A128A11C2
:1000A800003083120313BE000030BD000030BC00D6
:1000B8006430BB000A168A1101240A128A110A1632
:1000C8008A1123220A128A11033083120313C300F0
:1000D8004308DD000A128A15E5200A128A118312E4
:1000E80003135C08031D79287A28392E0A128A1509
:1000F800E5200A128A11C0286D08AF006C08AE000E
:100108000A168A1111270A128A11392E6B08AF00B4
:100118006A08AE006908B1006808B0000A128A15BA
:10012800E6220A128A11392E6708AF006608AE0067
:100138006508B1006408B00000300A128A117226FE
:100148000A128A11392E6508AF006408AE006308E8
:10015800B1006208B00001300A128A1172260A1230
:100168008A11392E5408AB005308AA000A128A15BE
:10017800E3210A128A11392E831203135D08C30082
:10018800C4014408003A0319CA28B6284308013AAA
:1001980003198028033A03198A28013A0319982871
:1001A800073A0319A728B6285C080319DC28DD28B4
:1001B800EE29D0295E08C300C4014308A000440802
:1001C800A100E830A2000330A3000A168A11802299
:1001D8000A128A11831203132008C5002108C600D9
:1001E8005F08C700C8014708A0004808A10064309C
:1001F800A2000030A3000A168A1180220A128A116E
:100208008312031320084507C90021080318210A8F
:100218004607CA006008CB00CC014B08A0004C0878
:10022800A1000A30A2000030A3000A168A11802219
:100238000A128A118312031320084907CD002108E6
:100248000318210A4A07CE0061084D07EC00003068
:10025800031801304E07ED00E6295E08C300C4010B
:100268004308A0004408A1000A30A2000030A300FF
:100278000A168A1180220A128A11831203135F0850
:100288002007EA000030031801302107EB0060085E
:10029800C300C4014308A0004408A1000A30A2001A
:1002A8000030A3000A168A1180220A128A118312CA
:1002B800031361082007E800003003180130210704
:1002C800E900E6295E08C300C4014308A000440809
:1002D800A1000A30A2000030A3000A168A11802269
:1002E8000A128A11831203135F082007E600003000
:1002F800031801302107E7006008C300C401430860
:10030800A0004408A1000A30A2000030A3000A1689
:100318008A1180220A128A118312031361082007A6
:10032800E4000030031801302107E500E6295E08E3
:10033800C300C4014308A0004408A1000A30A20079
:100348000030A3000A168A1180220A128A11831229
:1003580003135F082007E400003003180130210769
:10036800E5006008C300C4014308A0004408A100D8
:100378000A30A2000030A3000A168A1180220A124D
:100388008A118312031361082007E2000030031862
:1003980001302107E300E6295D08C300C4014408D1
:1003A800003A0319D829E6294308013A0319DE2837
:1003B800033A03193129013A03196629073A03193F
:1003C8009B29E6290A168A1162260A128A118312C3
:1003D8000313DC0183120313D301D40173285C08CF
:1003E800031DF729F829EE29842BE830A6000330ED
:1003F800A7006D08A9006C08A8000A168A117323C3
:100408000A128A11831203132608C3004308DE0068
:100418006430A6000030A7006D08A3006C08A20095
:10042800E830A0000330A1000A168A1137230A1207
:100438008A11831203132108A9002008A8000A16AC
:100448008A1173230A128A11831203132608C30020
:100458004308DF006D08A3006C08A200E830A00084
:100468000330A1000A168A1137230A128A1183124F
:1004780003132108D2002008D1000A30A60000305A
:10048800A7005208A3005108A2006430A000003061
:10049800A1000A168A1137230A128A11831203133C
:1004A8002108A9002008A8000A168A1173230A1235
:1004B8008A11831203132608C3004308E0006D085D
:1004C800A3006C08A200E830A0000330A1000A16BF
:1004D8008A1137230A128A11831203132108D200C2
:1004E8002008D1005208A3005108A2006430A000DF
:1004F8000030A1000A168A1137230A128A118312C2
:1005080003132108D0002008CF000A30A0000030D3
:10051800A1005008A3004F08A2000A168A11372329
:100528000A128A11831203132008C3004308E1004A
:100538009A2B0A30A6000030A7006B08A9006A08A9
:10054800A8000A168A1173230A128A118312031348
:100558002608C3004308DE000A30A0000030A100CE
:100568006B08A3006A08A2000A168A1137230A1228
:100578008A11831203132008C3004308DF000A30DE
:10058800A6000030A7006908A9006808A8000A1694
:100598008A1173230A128A11831203132608C300CF
:1005A8004308E0000A30A0000030A1006908A30059
:1005B8006808A2000A168A1137230A128A118312C0
:1005C80003132008C3004308E1009A2B0A30A60051
:1005D8000030A7006708A9006608A8000A168A1153
:1005E80073230A128A11831203132608C3004308CF
:1005F800DE000A30A0000030A1006708A3006608EA
:10060800A2000A168A1137230A128A1183120313C9
:100618002008C3004308DF000A30A6000030A70006
:100628006508A9006408A8000A168A1173230A122B
:100638008A11831203132608C3004308E0000A3016
:10064800A0000030A1006508A3006408A2000A16F3
:100658008A1137230A128A11831203132008C30050
:100668004308E1009A2B0A30A6000030A70065086D
:10067800A9006408A8000A168A1173230A128A11AD
:10068800831203132608C3004308DE000A30A000C3
:100698000030A1006508A3006408A2000A168A11A8
:1006A80037230A128A11831203132008C300430850
:1006B800DF000A30A6000030A7006308A90062081E
:1006C800A8000A168A1173230A128A1183120313C7
:1006D8002608C3004308E0000A30A0000030A1004B
:1006E8006308A3006208A2000A168A1137230A12B7
:1006F8008A11831203132008C3004308E1009A2BD0
:100708005D08C300C4014408003A03198C2B9A2BD6
:100718004308013A0319F929033A03199D2A013AB2
:100728000319EA2A073A0319372B9A2BDC01DC0A4A
:10073800DB015E30C3004308AA005B080A128A1571
:1007480029240A128A11EE295C080319AC2BAD2B57
:10075800EE29B62BDE01CC2BDF01CC2BE001CC2B14
:10076800E101CC2B5B08C300C4014408003A03191B
:10077800BE2BCC2B4308003A0319AE2B013A0319C0
:10078800B02B033A0319B22B013A0319B42BCC2B23
:100798005E30C3004308AA005B080A128A152924A0
:1007A8000A128A11EE295C080319DB2BDC2BEE29CF
:1007B800E92BDE01DE0AFF2BDF01DF0AFF2BE00158
:1007C800E00AFF2BE101E10AFF2B5B08C300C4012B
:1007D8004408003A0319F12BFF2B4308003A031988
:1007E800DD2B013A0319E02B033A0319E32B013AF5
:1007F8000319E62BFF2B5E30C3004308AA005B08F1
:100808000A128A1529240A128A11EE295C0803198A
:100818000E2C0F2CEE29242C0230C3004308DE00D6
:100828003A2C0230C3004308DF003A2C0230C300E0
:100838004308E0003A2C0230C3004308E1003A2C98
:100848005B08C300C4014408003A03192C2C3A2C55
:100858004308003A0319102C013A0319152C033ADE
:1008680003191A2C013A03191F2C3A2C5E30C300C5
:100878004308AA005B080A128A1529240A128A1159
:10088800EE295C080319492C4A2CEE295F2C033009
:10089800C3004308DE00752C0330C3004308DF00A3
:1008A800752C0330C3004308E000752C0330C300E7
:1008B8004308E100752C5B08C300C4014408003AF2
:1008C8000319672C752C4308003A03194B2C013A7D
:1008D8000319502C033A0319552C013A03195A2CC1
:1008E800752C5E30C3004308AA005B080A128A15FB
:1008F80029240A128A11EE295C080319842C852CF4
:10090800EE299A2C0430C3004308DE00B02C0430D2
:10091800C3004308DF00B02C0430C3004308E000E4
:10092800B02C0430C3004308E100B02C5B08C300BE
:10093800C4014408003A0319A22CB02C4308003A19
:100948000319862C013A03198B2C033A0319902CAE
:10095800013A0319952CB02C5E30C3004308AA0055
:100968005B080A128A1529240A128A11EE295C08E2
:100978000319BF2CC02CEE29D52C0530C300430821
:10098800DE00EB2C0530C3004308DF00EB2C0530FC
:10099800C3004308E000EB2C0530C3004308E10026
:1009A800EB2C5B08C300C4014408003A0319DD2C92
:1009B800EB2C4308003A0319C12C013A0319C62C41
:1009C800033A0319CB2C013A0319D02CEB2C5E30D7
:1009D800C3004308AA005B080A128A1529240A12D0
:1009E8008A11EE295C080319FA2CFB2CEE29102D2C
:1009F8000630C3004308DE00262D0630C300430836
:100A0800DF00262D0630C3004308E000262D0630FF
:100A1800C3004308E100262D5B08C300C401440855
:100A2800003A0319182D262D4308003A0319FC2C07
:100A3800013A0319012D033A0319062D013A031946
:100A48000B2D262D5E30C3004308AA005B080A124E
:100A58008A1529240A128A11EE295C080319352DF2
:100A6800362DEE294B2D0730C3004308DE00612DDB
:100A78000730C3004308DF00612D0730C300430877
:100A8800E000612D0730C3004308E100612D5B08D9
:100A9800C300C4014408003A0319532D612D4308CB
:100AA800003A0319372D013A03193C2D033A03196B
:100AB800412D013A0319462D612D5E30C3004308CC
:100AC800AA005B080A128A1529240A128A11EE293B
:100AD8005C080319702D712DEE29862D0830C3008E
:100AE8004308DE009C2D0830C3004308DF009C2D1E
:100AF8000830C3004308E0009C2D0830C3004308B9
:100B0800E1009C2D5B08C300C4014408003A0319A6
:100B18008E2D9C2D4308003A0319722D013A0319B2
:100B2800772D033A03197C2D013A0319812D9C2D49
:100B38005E30C3004308AA005B080A128A152924FC
:100B48000A128A11EE295C080319AB2DAC2DEE2987
:100B5800C12D0930C3004308DE00D72D0930C3007A
:100B68004308DF00D72D0930C3004308E000D72D24
:100B78000930C3004308E100D72D5B08C300C40156
:100B88004408003A0319C92DD72D4308003A031920
:100B9800AD2D013A0319B22D033A0319B72D013AC5
:100BA8000319BC2DD72D5E30C3004308AA005B088B
:100BB8000A128A1529240A128A11EE295C080319D7
:100BC800E62DE72DFE2D5B080319EB2DEC2DEF2DFF
:100BD8000130DB02F32D0330C3004308DB005E3035
:100BE800C3004308AA005B080A128A1529240A12BE
:100BF8008A11EE295D030319022E032E062E0130F9
:100C0800DD02EE29DD01DD0AEE295C0803190D2E4F
:100C18000E2E252E03305B06031D132E142E162EC2
:100C2800DB011A2E0130C3004308DB075E30C30026
:100C38004308AA005B080A128A1529240A128A1195
:100C4800EE2904305D0603192A2E2B2E302E013092
:100C5800C3004308DD07EE290430C3004308DD0064
:100C6800EE29DC01D301D40173288312031354083D
:100C7800003A0319402E73285308073A0319E22D46
:100C88000F3A0319802C013A0319092E053A031962
:100C9800D72B193A0319D828033A0319A82B0E3A67
:100CA80003190A2C043A0319BB2C5E3A0319312D97
:100CB800013A0319352E043A0319F3290D3A031999
:100CC800A72D183A03196C2D083A0319F62C043A83
:100CD8000319452C73280A128A110C28831203134E
:100CE800B5000A30A6000030A7002F08A9002E087A
:100CF800A8000A168A1173230A128A118312031391
:100D08002608B2003208B6003608031D8C2E8D2E38
:100D1800B22E3508031D912E922EB22E0830B20045
:100D28003208A400013084000A168A1100200A1231
:100D38008A110A168A11E3250A128A1183120313EB
:100D4800A401023084000A168A1100200A128A11AE
:100D58000A168A11E3250A128A11E82E3608A03EDF
:100D68008400803083130004B2000030B3000430E4
:100D7800FF00330DB30CB20CFF0BBD2E3208B400CC
:100D88003408A400013084000A168A1100200A12CF
:100D98008A110A168A11E3250A128A11831203138B
:100DA8003608A03E840083130008B2003208A4006D
:100DB800023084000A168A1100200A128A110A16C3
:100DC8008A11E3250A128A110A3083120313A0003C
:100DD8000030A1002F08A3002E08A2000A168A11CD
:100DE80037230A128A11831203132008B20032082B
:100DF800B6003608A03E840083130008B200043011
:100E08000310B20CFF3E031D042F3208B300330851
:100E1800A400033084000A168A1100200A128A11DD
:100E28000A168A11E3250A128A1183120313360857
:100E3800A03E840083130008B2003208A4000430E6
:100E480084000A168A1100200A128A110A168A11C9
:100E5800E3250A128A110A3083120313A600003010
:100E6800A7003108A9003008A8000A168A117323C0
:100E78000A128A11831203132608B2003208B60038
:100E88003608A03E840083130008B2000430031023
:100E9800B20CFF3E031D4B2F3208B3003308A400E9
:100EA800053084000A168A1100200A128A110A16CF
:100EB8008A11E3250A128A11831203133608A03E09
:100EC800840083130008B2003208A40006308400AE
:100ED8000A168A1100200A128A110A168A11E325B5
:100EE8000A128A110A3083120313A0000030A100ED
:100EF8003108A3003008A2000A168A1137230A1203
:100F08008A11831203132008B2003208B60036088B
:100F1800A03E840083130008B20004300310B20C12
:100F2800FF3E031D922F3208B3003308A400073098
:100F380084000A168A1100200A128A110A168A11D8
:100F4800E3250A128A11831203133608A03E84008F
:100F580083130008B2003208A400083084000A167F
:100F68008A1100200A128A110A168A11E3250A1228
:100F78008A11080083160313881208138813831232
:100F8800031388160817881701300A168A11AF2428
:100F98000A128A1103300A168A11AF240A128A111A
:100FA80029300A168A11AF240A128A1104308312D2
:100FB8000313A9002908FB0004300A168A11AF247C
:100FC8000A128A1105300A168A11AF240A128A11E8
:100FD80008300A168A11AF240A128A1180300A16BC
:100FE8008A11AF240A128A110A128A11FF270A12DB
:080FF8008A110800043408000E
:101002008312031308130A30A0000030A1000A164D
:101012008A115E220A128A158312031308170A30F4
:10102200A0000030A1000A168A115E220A128A1557
:1010320008000B1D1D281E282728133083120313B6
:1010420081000B110130F2007208FA0783120313B8
:101052000D1C2C282D28DE280D108B130130F200D8
:101062007208F8077608031D372838285328653098
:101072007A02031C3D283E28492874307A0203185C
:10108200432844284928F601F60AF801FA01DD2826
:101092001030F000E030F1000A168A11BD210A1268
:1010A2008A15DD287908F2000310720CF300730828
:1010B200F9000A168A1140220A128A15F2007208F1
:1010C200F700FA017703031D672868286A28F917D1
:1010D2007E287708031D6E286F2874287F30F2005F
:1010E2007208F9057E280230F000E030F1000A169D
:1010F2008A11BD210A128A15DE2808307806031DDE
:101102008328842893287908031988288928DD28C8
:101112000330F000E030F1000A168A11BD210A12F4
:101122008A15DE2810307806031D98289928A828E9
:10113200790A03199D289E28DD280430F000E0304A
:10114200F1000A168A11BD210A128A15DE2818300A
:101152007806031DAD28AE28B8287908F200F301FD
:10116200720883120313D7007308D800DD282030D9
:101172007806031DBD28BE28DD28F801F60179088E
:10118200831203135707F20058080318580AF30092
:10119200720A7304031DCE28CF28D4285808D4001D
:1011A2005708D300DD280530F0000030F1000A16A0
:1011B2008A11BD210A128A158B1775088A00740ECE
:1011C2008300FE0E7E0E09000A168A11CA210A1237
:1011D2008A15D03083120313AD000030AE000A1618
:1011E2008A11DC210A128A15003083120313AD0022
:1011F200AE000A168A11DC210A128A150A168A1111
:10120200D3210A128A150A168A11CA210A128A15CC
:10121200D13083120313AD000030AE000A168A11DA
:10122200DC210A128A15013083120313A000003058
:10123200A1000A168A11D0220A128A1583120313F8
:101242002108A7002008A6000A168A11A7220A125E
:101252008A15831203132708E3002608E2000130EF
:10126200A0000030A1000A168A11D0220A128A15A3
:10127200831203132108A7002008A6000A168A1168
:10128200A7220A128A15831203132708E5002608EB
:10129200E4000130A0000030A1000A168A11D02219
:1012A2000A128A15831203132108A7002008A60038
:1012B2000A168A11A7220A128A1583120313270813
:1012C200E7002608E6000130A0000030A1000A165F
:1012D2008A11D0220A128A15013083120313A00048
:1012E2000030A1000A168A11D0220A128A1583122E
:1012F20003132108A7002008A6000A168A11A722B4
:101302000A128A15831203132708E9002608E80047
:101312000130A0000030A1000A168A11D0220A1260
:101322008A15831203132108A7002008A6000A16B3
:101332008A11A7220A128A15831203132708EB00C7
:101342002608EA000130A0000030A1000A168A1126
:10135200D0220A128A15831203132108A70020083B
:10136200A6000A168A11A7220A128A1583120313EB
:101372002708ED002608EC000A168A11D3210A126A
:101382008A150A168A11CA210A128A15D1308312C5
:101392000313AD000030AE000A168A11DC210A12D6
:1013A2008A15013083120313A0000030A1000A162F
:1013B2008A11D0220A128A150A168A11D3210A1218
:1013C2008A150800831203132B08AD002A08AC000B
:1013D2002D0E0F39AC00AD012C08AE002E08AF0067
:1013E2002F08A03E840083130008AC0004300310D1
:1013F200AC0CFF3E031DF8292C08AD002D08A400FB
:10140200013084000A168A1100200A128A150A166F
:101412008A11E3250A128A15831203132F08A03EAC
:10142200840083130008AC002C08A400023084005E
:101432000A168A1100200A128A150A168A11E32551
:101442000A128A15831203132B080F39AC002C08D9
:10145200AF002F08A03E8400803083130004AC004C
:101462000030AD000430FF002D0DAD0CAC0CFF0BB5
:10147200352A2C08AE002E08A400033084000A1678
:101482008A1100200A128A150A168A11E3250A1205
:101492008A15831203132F08A03E840083130008C9
:1014A200AC002C08A400043084000A168A11002023
:1014B2000A128A150A168A11E3250A128A1583125C
:1014C20003132B08AD002A08AC0004300310AD0C46
:1014D200AC0CFF3E031D672A2C080F39AE002E0804
:1014E200AF002F08A03E8400803083130004AC00BC
:1014F2000030AD000430FF002D0DAD0CAC0CFF0B25
:101502007D2A2C08AE002E08A400053084000A169D
:101512008A1100200A128A150A168A11E3250A1274
:101522008A15831203132F08A03E84008313000838
:10153200AC002C08A400063084000A168A11002090
:101542000A128A150A168A11E3250A128A158312CB
:1015520003132A080F39AC002C08AF002F08A03E55
:101562008400803083130004AC000030AD000430EE
:10157200FF002D0DAD0CAC0CFF0BBA2A2C08AE00EF
:101582002E08A400073084000A168A1100200A12CD
:101592008A150A168A11E3250A128A158312031381
:1015A2002F08A03E840083130008AC002C08A4007E
:1015B200083084000A168A1100200A128A150A16B7
:1015C2008A11E3250A128A1508000A3083120313CE
:1015D200A6000030A7002F08A9002E08A8000A16AE
:1015E2008A1173230A128A15831203132608B20082
:1015F2003208B5003508031DFF2A002B1D2BA4015C
:10160200013084000A168A1100200A128A150A166D
:101612008A11E3250A128A1583120313A4010230E8
:1016220084000A168A1100200A128A150A168A11E3
:10163200E3250A128A154F2B3508A03E8400831336
:101642000008B20004300310B20CFF3E031D242B2D
:101652003208B3003308A400013084000A168A114C
:1016620000200A128A150A168A11E3250A128A151F
:10167200831203133508A03E840083130008B200CE
:101682003208A400023084000A168A1100200A12CD
:101692008A150A168A11E3250A128A150A3083125C
:1016A2000313A0000030A1002F08A3002E08A200FF
:1016B2000A168A1137230A128A1583120313200885
:1016C200B2003208B5003508A03E8400831300083A
:1016D200B20004300310B20CFF3E031D6B2B320824
:1016E200B3003308A400033084000A168A110020D4
:1016F2000A128A150A168A11E3250A128A1583121A
:1017020003133508A03E840083130008B200320898
:10171200A400043084000A168A1100200A128A15D5
:101722000A168A11E3250A128A150A308312031354
:10173200A6000030A7003108A9003008A8000A1648
:101742008A1173230A128A15831203132608B20020
:101752003208B5003508A03E8400803083130004AF
:10176200B2000030B3000430FF00330DB30CB20CF2
:10177200FF0BB62B3208B4003408A40005308400F5
:101782000A168A1100200A128A150A168A11E325FE
:101792000A128A15831203133508A03E84008313AC
:1017A2000008B2003208A400063084000A168A112A
:1017B20000200A128A150A168A11E3250A128A15CE
:1017C2000A3083120313A0000030A1003108A300E5
:1017D2003008A2000A168A1137230A128A158312C8
:1017E20003132008B2003208B5003508A03E840079
:1017F20083130008B20004300310B20CFF3E031D35
:10180200FD2B3208B3003308A400073084000A1607
:101812008A1100200A128A150A168A11E3250A1271
:101822008A15831203133508A03E8400831300082F
:10183200B2003208A400083084000A168A1100207F
:101842000A128A150A168A11E3250A128A15080055
:1018520083120313AE00E92F2A08840083130008C1
:10186200AB002B08AF002F08A03E84000008AB009D
:1018720004300310AB0CFF3E031D3A2C2B08AC00C6
:101882002C08A400013084000A168A1100200A12D2
:101892008A150A168A11E3250A128A15831203137E
:1018A2002F08A03E840083130008AB002B08A4007D
:1018B200023084000A168A1100200A128A150A16BA
:1018C2008A11E3250A128A15831203132A0A840055
:1018D20083130008AB002B08AF002F08A03E840042
:1018E20080300004AB000030AC000430FF002C0D4F
:1018F200AC0CAB0CFF0B782C2B08AD002D08A40010
:10190200033084000A168A1100200A128A150A1668
:101912008A11E3250A128A15831203132F08A03EA7
:10192200840083130008AB002B08A4000430840059
:101932000A168A1100200A128A150A168A11E3254C
:101942000A128A15831203132A08023E84008313A3
:101952000008AB002B08AF002F08A03E84008030A7
:101962000004AB000030AC000430FF002C0DAC0CC6
:10197200AB0CFF0BB72C2B08AD002D08A4000530D3
:1019820084000A168A1100200A128A150A168A1180
:10199200E3250A128A15831203132F08A03E84003E
:1019A20083130008AB002B08A400063084000A163B
:1019B2008A1100200A128A150A168A11E3250A12D0
:1019C2008A15831203132A08033E84008313000836
:1019D200AB002B08AF002F08A03E8400803000042B
:1019E200AB000030AC000430FF002C0DAC0CAB0C93
:1019F200FF0BF62C2B08AD002D08A4000730840045
:101A02000A168A1100200A128A150A168A11E3257B
:101A12000A128A15831203132F08A03E840083132F
:101A22000008AB002B08A400083084000A168A11B3
:101A320000200A128A150A168A11E3250A128A154B
:101A4200FF2F2A08840083130008AB002B08AF0085
:101A52002F08A03E84000008AB0004300310AB0C3A
:101A6200FF3E031D2F2D2B08AC002C08A4000130D3
:101A720084000A168A1100200A128A150A168A118F
:101A8200E3250A128A15831203132F08A03E84004D
:101A920083130008AB002B08A400023084000A164E
:101AA2008A1100200A128A150A168A11E3250A12DF
:101AB2008A15831203132A0A840083130008AB00D9
:101AC2002B08AF002F08A03E840080300004AB003A
:101AD2000030AC000430FF002C0DAC0CAB0CFF0B43
:101AE2006D2D2B08AD002D08A400033084000A16CA
:101AF2008A1100200A128A150A168A11E3250A128F
:101B02008A15831203132F08A03E84008313000852
:101B1200AB002B08A400043084000A168A110020AE
:101B22000A128A150A168A11E3250A128A158312E5
:101B320003132A08023E840083130008AB002B081B
:101B4200AF002F08A03E84000008AB000430031051
:101B5200AB0CFF3E031DA82D2B08AC002C08A400E3
:101B6200053084000A168A1100200A128A150A1604
:101B72008A11E3250A128A15831203132F08A03E45
:101B8200840083130008AB002B08A40006308400F5
:101B92000A168A1100200A128A150A168A11E325EA
:101BA2000A128A15831203132A08033E8400831340
:101BB2000008AB002B08AF002F08A03E84000008ED
:101BC200AB0004300310AB0CFF3E031DE32D2B08CA
:101BD200AC002C08A400073084000A168A110020E9
:101BE2000A128A150A168A11E3250A128A15831225
:101BF20003132F08A03E840083130008AB002B08B8
:101C0200A400083084000A168A1100200A128A15DC
:101C12000A168A11E3250A128A15FF2F2A08840060
:101C220083130008AB002B08AF002F08A03E8400EE
:101C32000008AB0004300310AB0CFF3E031D1C2E4A
:101C42002B08AC002C08A400013084000A168A116B
:101C520000200A128A150A168A11E3250A128A1529
:101C6200831203132F08A03E840083130008AB00E5
:101C72002B08A400023084000A168A1100200A12DE
:101C82008A150A168A11E3250A128A15831203138A
:101C92002A0A840083130008AB002B08AF002F0828
:101CA200A03E84000008AB0004300310AB0CFF3EE2
:101CB200031D562E2B08AC002C08A4000330840010
:101CC2000A168A1100200A128A150A168A11E325B9
:101CD2000A128A15831203132F08A03E840083136D
:101CE2000008AB002B08A400043084000A168A11F5
:101CF20000200A128A150A168A11E3250A128A1589
:101D0200831203132A08023E840083130008AB00E7
:101D12002B08AF002F08A03E840080300004AB00E7
:101D22000030AC000430FF002C0DAC0CAB0CFF0BF0
:101D3200952E2B08AD002D08A400053084000A164C
:101D42008A1100200A128A150A168A11E3250A123C
:101D52008A15831203132F08A03E84008313000800
:101D6200AB002B08A400063084000A168A1100205A
:101D72000A128A150A168A11E3250A128A15831293
:101D820003132A08033E840083130008AB002B08C8
:101D9200AF002F08A03E84000008AB0004300310FF
:101DA200AB0CFF3E031DD02E2B08AC002C08A40068
:101DB200073084000A168A1100200A128A150A16B0
:101DC2008A11E3250A128A15831203132F08A03EF3
:101DD200840083130008AB002B08A40008308400A1
:101DE2000A168A1100200A128A150A168A11E32598
:101DF2000A128A15FF2F2A08840083130008AB00F9
:101E02002B08AF002F08A03E84000008AB0004306E
:101E12000310AB0CFF3E031D092F2B08AC002C084E
:101E2200A400013084000A168A1100200A128A15C1
:101E32000A168A11E3250A128A15831203132F0840
:101E4200A03E840083130008AB002B08A4000230DC
:101E520084000A168A1100200A128A150A168A11AB
:101E6200E3250A128A15831203132A0A84008313B4
:101E72000008AB002B08AF002F08A03E840000082A
:101E8200AB0004300310AB0CFF3E031D432F2B08A5
:101E9200AC002C08A400033084000A168A1100202A
:101EA2000A128A150A168A11E3250A128A15831262
:101EB20003132F08A03E840083130008AB002B08F5
:101EC200A400043084000A168A1100200A128A151E
:101ED2000A168A11E3250A128A15831203132A08A5
:101EE200023E840083130008AB002B08AF002F08CA
:101EF200A03E84000008AB0004300310AB0CFF3E90
:101F0200031D7E2F2B08AC002C08A4000530840092
:101F12000A168A1100200A128A150A168A11E32566
:101F22000A128A15831203132F08A03E840083131A
:101F32000008AB002B08A400063084000A168A11A0
:101F420000200A128A150A168A11E3250A128A1536
:101F5200831203132A08033E840083130008AB0094
:101F62002B08AF002F08A03E840080300004AB0095
:101F72000030AC000430FF002C0DAC0CAB0CFF0B9E
:101F8200BD2F2B08AD002D08A400073084000A16CF
:101F92008A1100200A128A150A168A11E3250A12EA
:101FA2008A15831203132F08A03E840083130008AE
:101FB200AB002B08A400083084000A168A11002006
:101FC2000A128A150A168A11E3250A128A15FF2FA8
:101FD2002E08AB00AC012C08003A0319F12FFF2F99
:101FE2002B08003A03192D2C013A0319222D033A2A
:101FF20003190F2E013A0319FC2EFF2F080010308F
:102002008A000408840A820700340034013402344E
:0A20120003340434053406340734A7
:10237A00F801FA01F601F901080064008001840AF3
:10238A000406031900340406C3290A168A11E62131
:10239A000A168A1183160313111408000A168A11E1
:1023AA00E6210A168A1183160313111508000A1664
:1023BA008A11E6210A168A11831203132D08930043
:1023CA0008008316031311081F39031DED29EE298E
:1023DA00E6291419F129F229E62908000134003402
:1023EA001534003416340034013400340234003415
:1023FA001634003406347D3405345B341F342734F4
:10240A003E347E3415347F343F3477346E34783436
:10241A004F347A3472347E088A007F0882000A16A2
:10242A008A1110220A168A118000840A04087D067D
:10243A0003190034FF0A0319FE0A142AFF3083160F
:10244A00031387008112811513308312031381004D
:10245A000B118B1604309D00900183160313871409
:10246A00831203130D10831603130D14831203131F
:10247A0010148B17080007307A02031C452A462AD3
:10248A004E2A0C307A0203184B2A4C2A4E2A003064
:10249A005D2A0E307A02031C532A542A5C2A16300B
:1024AA007A020318592A5A2A5C2A01305D2A023014
:1024BA0008006F2A0630A2000030A3000130A202F1
:1024CA000030031CA303A30222082304031D6E2A5F
:1024DA006F2A632A013083120313A0020030031CFF
:1024EA00A103A102200A031D7E2A210A031D7E2AB6
:1024FA007F2A5F2A080083120313A401A501201C66
:10250A00872A882A8E2A2208A4070318A50A2308DC
:10251A00A50701300310A20DA30DFF3E031D8F2A4C
:10252A0001300310A10CA00CFF3E031D962A2008BF
:10253A002104031DA12AA22A842A2508A10024080D
:10254A00A00008000F30831203132605A8000030EC
:10255A002705A900260E0F39A000270EF039A0047E
:10256A00270E0F39A100F030A11D0030A1040A3056
:10257A00A2000030A3000A168A1180220A168A11C4
:10258A008312031328082007A60029080318290A1A
:10259A002107A70008000A168A11E6210A168A11DD
:1025AA008316031391150A168A11E6210A168A114F
:1025BA00831203131308A200A3012208A40023080C
:1025CA00A5000A168A11E6210A168A118312031334
:1025DA00200821040319F22AF62A831603139116F6
:1025EA00F92A83160313911211168312031325086D
:1025FA00A1002408A00008000A3083120313A000D7
:10260A000030A1002A08A3002908A2000A168A118C
:10261A007A250A168A11831203132008AB002108AF
:10262A00AC00AB0EAC0EF030AC052B080F39AC0485
:10263A00F030AB050A30A0000030A1002A08A30040
:10264A002908A2000A168A1154240A168A1183122A
:10265A00031320082B07A90021080318210A2C07B5
:10266A00AA000800831203132008210403193E2B31
:10267A003F2B6E2BA501A50A4D2B01300310A00D8F
:10268A00A10DFF3E031D432B0130A4002408A5071A
:10269A00A11F502B512B422B21082302031D572B1C
:1026AA0020082202031C5A2B5B2B612B2008A20252
:1026BA002108031CA303A30201300310A10CA00CE0
:1026CA00FF3E031D622B0130A502031D6D2B6E2BED
:1026DA00512B2308A1002208A0000800831203132B
:1026EA00AB01AC012608270403197C2B7D2BB42BE4
:1026FA00AD01AD0A8B2B01300310A60DA70DFF3ECD
:10270A00031D812B0130AA002A08AD07A71F8E2BB3
:10271A008F2B802B01300310AB0DAC0DFF3E031D38
:10272A00902B27082902031D9C2B26082802031C2C
:10273A009F2BA02BA72B2608A8022708031CA90356
:10274A00A9022B1401300310A70CA60CFF3E031D8F
:10275A00A82B0130AD02031DB32BB42B8F2B2C08F1
:10276A00A7002B08A6000800003083120313AC0050
:10277A000030AB000030AA000030A900201CC62B94
:10278A00C72BDE2B2408A907250803110318013ECD
:10279A000319D02BAA07260803110318013E0319AF
:1027AA00D72BAB07270803110318013E0319DE2BA9
:1027BA00AC070130A8000310A40DA50DA60DA70DA6
:1027CA00A80BE02B01300310A30CA20CA10CA00C47
:1027DA00FF3E031DE82B2308220421042004031DC5
:1027EA00F72BF82BC32B2C08A3002B08A2002A08CE
:1027FA00A1002908A00008008316031387150716ED
:10280A002830831203139400831603139101831251
:10281A0003133B08BF003C08C0003D08C1003E0846
:10282A00C20002300310BF0DC00DC10DC20DFF3E24
:10283A00031D172C4208A3004108A2004008A1006A
:10284A003F08A0000030A7000030A6000030A50015
:10285A006430A4000A168A11B9230A168A1183124F
:10286A0003132308B0002208AF002108AE00200895
:10287A00AD000030B4007A30B3001230B20000303C
:10288A00B1000A168A1112250A168A118312031335
:10289A002D08FF3E83160313930094010800831248
:1028AA000313A601A31F5A2C5B2C622CA209A309AD
:1028BA00A20A0319A30AA601A60AA11F652C662C5F
:1028CA006B2CA009A109A00A0319A10A2008210456
:1028DA000319702C712CA02CA501A50A7F2C01309C
:1028EA000310A00DA10DFF3E031D752C0130A4009D
:1028FA002408A507A11F822C832C742C21082302EB
:10290A00031D892C20082202031C8C2C8D2C932C4D
:10291A002008A2022108031CA303A302013003100A
:10292A00A10CA00CFF3E031D942C0130A502031D2F
:10293A009F2CA02C832C26080319A42CA52CAA2C86
:10294A00A209A309A20A0319A30A2308A1002208BB
:10295A00A000080083120313A6008030A4002408F4
:10296A00A70088120A30A0000030A1000A168A11B6
:10297A005E220A168A118312031388170A128A150D
:10298A0001200A168A118312031388130A128A1560
:10299A0001200A168A118312031388130A128A1550
:1029AA0001200A168A1183120313A8012708260593
:1029BA000319E02CE12CE32C8817E42C88130A1263
:1029CA008A1501200A168A11831203132708A40004
:1029DA000310240CA5002508A7000130A400240830
:1029EA00A80708302802031CFB2CFC2CDB2C8813BC
:1029FA000A128A1501200A168A11831203138816ED
:102A0A000A30A0000030A1000A168A115E220A16B6
:102A1A008A118312031388170800003083120313E4
:102A2A00B9000030B8000030B7000030B6003008F6
:102A3A002F042E042D040319232D242D712DBA01E0
:102A4A00BA0A342D0130B5000310AD0DAE0DAF0D2D
:102A5A00B00DB50B292D0130B5003508BA07B01FE6
:102A6A00372D382D272D0130B5000310B60DB70DBF
:102A7A00B80DB90DB50B3A2D30083402031D4F2D90
:102A8A002F083302031D4F2D2E083202031D4F2D2E
:102A9A002D083102031C522D532D622D2D08B1022F
:102AAA002E08031C2E0FB2022F08031C2F0FB3028D
:102ABA003008031C300FB402361401300310B00C76
:102ACA00AF0CAE0CAD0CFF3E031D632D0130BA02F4
:102ADA00031D702D712D382D3908B0003808AF004C
:102AEA003708AE003608AD00080083120313A601AA
:102AFA00A11F802D812D882DA009A109A00A0319E3
:102B0A00A10AA601A60AA31F8B2D8C2D952DA20919
:102B1A00A309A20A0319A30A0130A4002408A606DD
:102B2A00A701A8012008210403199C2D9D2DD42D4D
:102B3A00A501A50AAB2D01300310A00DA10DFF3E82
:102B4A00031DA12D0130A4002408A507A11FAE2D45
:102B5A00AF2DA02D01300310A70DA80DFF3E031DB8
:102B6A00B02D21082302031DBC2D20082202031CBC
:102B7A00BF2DC02DC72D2008A2022108031CA303C4
:102B8A00A302271401300310A10CA00CFF3E031D61
:102B9A00C82D0130A502031DD32DD42DAF2D260833
:102BAA000319D82DD92DDE2DA709A809A70A0319BB
:102BBA00A80A2808A1002708A00008008312031306
:102BCA00A70088120A30A0000030A1000A168A1154
:102BDA005E220A168A118312031388170A128A15AB
:102BEA0001200A168A118312031388130A128A15FE
:102BFA0001200A168A118312031388170A128A15EA
:102C0A0001200A168A11203083120313A500250811
:102C1A00A900A8012B2E270829050319152E162EFF
:102C2A00182E8817192E88130A128A1501200A16D7
:102C3A008A11831203132908A5000310250CA60084
:102C4A002608A9000130A5002508A8070630280291
:102C5A00031C302E312E102EA901A90AA80124081E
:102C6A0029050319392E3A2E3C2E88173D2E881332
:102C7A000A128A1501200A168A11831203132908D7
:102C8A00A5002507A6002608A9000130A5002508E9
:102C9A00A80704302802031C532E542E342E8816FB
:102CAA000A30A0000030A1000A168A115E220A1614
:102CBA008A1183120313881708000A168A11CA2177
:102CCA000A168A11D03083120313AD000030AE0009
:102CDA000A168A11DC210A168A110030831203139C
:102CEA00AD00AE000A168A11DC210A168A11831277
:102CFA0003136308AA006208A9000A168A110123AD
:102D0A000A168A11831203132A08AE002908AD0095
:102D1A000A168A11DC210A168A118312031365081E
:102D2A00AA006408A9000A168A1101230A168A1140
:102D3A00831203132A08AE002908AD000A168A1165
:102D4A00DC210A168A11831203136708AA0066088F
:102D5A00A9000A168A1101230A168A11831203137B
:102D6A002A08AE002908AD000A168A11DC210A16C3
:102D7A008A11013083120313AD000030AE000A1627
:102D8A008A11DC210A168A11831203136908AA0020
:102D9A006808A9000A168A1101230A168A118312E1
:102DAA0003132A08AE002908AD000A168A11DC218D
:102DBA000A168A11831203136B08AA006A08A9006B
:102DCA000A168A1101230A168A11831203132A0882
:102DDA00AE002908AD000A168A11DC210A168A11EA
:102DEA00831203136D08AA006C08A9000A168A1137
:102DFA0001230A168A11831203132A08AE0029082E
:102E0A00AD000A168A11DC210A168A110A168A11DD
:102E1A00D3210A168A110800831603132208831283
:102E2A000313B00004300310B00CFF3E031D182F2B
:102E3A003008B1003108A400013084000A168A1152
:102E4A0000200A168A110A168A11E3250A168A111F
:102E5A0083160313220883120313B0003008A40058
:102E6A00023084000A168A1100200A168A110A16EC
:102E7A008A11E3250A168A1183160313200883127E
:102E8A000313B00004300310B00CFF3E031D482F9B
:102E9A003008B1003108A400033084000A168A11F0
:102EAA0000200A168A110A168A11E3250A168A11BF
:102EBA0083160313200883120313B0003008A400FA
:102ECA00043084000A168A1100200A168A110A168A
:102EDA008A11E3250A168A110A3083120313A600FF
:102EEA000030A7002F08A9002E08A8000A168A1188
:102EFA0073230A168A11831203132608B0003008B6
:102F0A00B2003208A03E840083130008B0000430E7
:102F1A000310B00CFF3E031D8D2F3008B10031089D
:102F2A00A400053084000A168A1100200A168A11A4
:102F3A000A168A11E3250A168A1183120313320824
:102F4A00A03E840083130008B0003008A4000630B5
:102F5A0084000A168A1100200A168A110A168A1192
:102F6A00E3250A168A110A3083120313A0000030DF
:102F7A00A1002F08A3002E08A2000A168A113723DF
:102F8A000A168A11831203132008B0003008B2000F
:102F9A003208A03E840083130008B00004300310F6
:102FAA00B00CFF3E031DD42F3008B1003108A40035
:102FBA00073084000A168A1100200A168A110A1696
:102FCA008A11E3250A168A11831203133208A03ED6
:102FDA00840083130008B0003008A400083084007D
:102FEA000A168A1100200A168A110A168A11E3257E
:062FFA000A168A1108000E
:02400E003A3F37
:00000001FF
